:020000020000FC
:0200000045C0F9
:0200040018954D
:02000800189549
:02000C00189545
:02001000189541
:0200140018953D
:02001800189539
:02001C00189535
:02002000189531
:0200240018952D
:02002800189529
:02002C00189525
:02003000189521
:0200340017C0F3
:0200380021C0E5
:02003C00189515
:0200400008C0F6
:0200440018950D
:02004800189509
:02004C00189505
:1000500018952FB604B115B1109366000093670090
:100060002FBE18952FB60CB10F3331F4559904C03B
:1000700026E0C0E6D0E0559A2FBE18952FB609911C
:100080000CB92A9509F455982FBE18954FE54DBF28
:1000900048E04EBF44274ABB47BB44BB41BB40E49A
:1000A00047B94CEE46B940E040BD43E349B9442767
:1000B0004BB948E94AB946E840BD7894F894709144
:1000C000660080916700789401D0F8CF442777FFCD
:1000D00003C0481B470B40E440936000442750E1B5
:1000E00067E28517760720F0851B760B4395F9CFDD
:1000F0002ED040936100442758EE63E085177607C1
:1001000020F0851B760B4395F9CF21D040936200F8
:10011000442754E660E08517760720F0851B760BB0
:100120004395F9CF14D04093630044275AE060E030
:100130008517760720F0851B760B4395F9CF07D0FE
:1001400040936400482F03D04093650008953327FF
:10015000ECE5F1E0E40FF31F4491089530313233C0
:0601600034353637383952
:00000001FF
