:020000020000FC
:020000003FC0FF
:0200040018954D
:02000800189549
:02000C00189545
:02001000189541
:0200140018953D
:02001800189539
:02001C00189535
:02002000189531
:0200240018952D
:02002800189529
:02002C00189525
:02003000189521
:0200340018951D
:02003800189519
:02003C00189515
:0200400008C0F6
:0200440018950D
:02004800189509
:02004C00189505
:1000500018952FB60F931F93399904C024B135B169
:10006000399A09C004B115B1201B310B25BB3F7C67
:1000700032953BBB3998369A1F910F912FBE189538
:100080000FE50DBF18E01EBF00270ABB07BB05EF39
:100090000BBB0FEF0BBB08BB04BB00E301BB01E4D0
:1000A00007B90EEC06B9789403E0109F202D312D8E
:1000B000112707FD1FEF310F200F021B130BFFCF7E
:00000001FF
