:020000020000FC
:020000003EC000
:0200040018954D
:02000800189549
:02000C00189545
:02001000189541
:0200140018953D
:02001800189539
:02001C00189535
:02002000189531
:0200240018952D
:0200280014C002
:02002C00189525
:02003000189521
:0200340018951D
:02003800189519
:02003C00189515
:02004000189511
:0200440018950D
:02004800189509
:02004C00189505
:1000500018952FB61FEF15BB15911BBB35BB3595FA
:1000600060F0FD013FED2A9541F42EE11196AA3B87
:1000700010E0B10711F4AEEAB0E02FBE18950FE51D
:100080000DBF08E00EBF002707BB01BB0FEF0ABB87
:1000900004BB0DE40CBF0CE003BF02E009BFEEEAB5
:1000A000F0E03FED2EE1AEEAB0E07894FFCF000043
:0E00B00000000000767938383F86000000001E
:00000001FF
